{
  "contractName": "TimedChest",
  "abi": [
    {
      "constant": true,
      "inputs": [
        {
          "name": "",
          "type": "uint256"
        }
      ],
      "name": "amounts",
      "outputs": [
        {
          "name": "",
          "type": "uint256"
        }
      ],
      "payable": false,
      "stateMutability": "view",
      "type": "function"
    },
    {
      "constant": true,
      "inputs": [],
      "name": "owner",
      "outputs": [
        {
          "name": "",
          "type": "address"
        }
      ],
      "payable": false,
      "stateMutability": "view",
      "type": "function"
    },
    {
      "constant": true,
      "inputs": [],
      "name": "tokenAddress",
      "outputs": [
        {
          "name": "",
          "type": "address"
        }
      ],
      "payable": false,
      "stateMutability": "view",
      "type": "function"
    },
    {
      "constant": true,
      "inputs": [],
      "name": "withdrawer",
      "outputs": [
        {
          "name": "",
          "type": "address"
        }
      ],
      "payable": false,
      "stateMutability": "view",
      "type": "function"
    },
    {
      "constant": true,
      "inputs": [
        {
          "name": "",
          "type": "uint256"
        }
      ],
      "name": "releaseTimes",
      "outputs": [
        {
          "name": "",
          "type": "uint256"
        }
      ],
      "payable": false,
      "stateMutability": "view",
      "type": "function"
    },
    {
      "constant": true,
      "inputs": [],
      "name": "token",
      "outputs": [
        {
          "name": "",
          "type": "address"
        }
      ],
      "payable": false,
      "stateMutability": "view",
      "type": "function"
    },
    {
      "inputs": [
        {
          "name": "_releaseDelays",
          "type": "uint256[]"
        },
        {
          "name": "_amounts",
          "type": "uint256[]"
        },
        {
          "name": "_withdrawer",
          "type": "address"
        },
        {
          "name": "_tokenAddress",
          "type": "address"
        }
      ],
      "payable": false,
      "stateMutability": "nonpayable",
      "type": "constructor"
    },
    {
      "constant": false,
      "inputs": [
        {
          "name": "_newOwner",
          "type": "address"
        }
      ],
      "name": "changeOwner",
      "outputs": [],
      "payable": false,
      "stateMutability": "nonpayable",
      "type": "function"
    },
    {
      "constant": false,
      "inputs": [],
      "name": "withdraw",
      "outputs": [],
      "payable": false,
      "stateMutability": "nonpayable",
      "type": "function"
    },
    {
      "constant": false,
      "inputs": [],
      "name": "withdrawAll",
      "outputs": [],
      "payable": false,
      "stateMutability": "nonpayable",
      "type": "function"
    }
  ],
  "bytecode": "0x606060405234156200001057600080fd5b60405162000df038038062000df083398101604052808051820191906020018051820191906020018051906020019091908051906020019091905050600033600160006101000a81548173ffffffffffffffffffffffffffffffffffffffff021916908373ffffffffffffffffffffffffffffffffffffffff16021790555060008273ffffffffffffffffffffffffffffffffffffffff1614151515620000b657600080fd5b60008373ffffffffffffffffffffffffffffffffffffffff1614151515620000dd57600080fd5b83518551148015620000f0575060008551115b1515620000fc57600080fd5b600090505b84518160ff161015620002265742858260ff168151811015156200012157fe5b906020019060200201511115156200013857600080fd5b6000848260ff168151811015156200014c57fe5b906020019060200201511115156200016357600080fd5b60008160ff161415620001b657848160ff168151811015156200018257fe5b90602001906020020151420160048260ff16815481101515620001a157fe5b90600052602060002090018190555062000218565b848160ff16815181101515620001c857fe5b9060200190602002015160046001830360ff16815481101515620001e857fe5b9060005260206000209001540160048260ff168154811015156200020857fe5b9060005260206000209001819055505b808060010191505062000101565b84600490805190602001906200023e929190620002e4565b50836005908051906020019062000257929190620002e4565b50826000806101000a81548173ffffffffffffffffffffffffffffffffffffffff021916908373ffffffffffffffffffffffffffffffffffffffff16021790555081600260006101000a81548173ffffffffffffffffffffffffffffffffffffffff021916908373ffffffffffffffffffffffffffffffffffffffff16021790555050505050506200035e565b82805482825590600052602060002090810192821562000323579160200282015b828111156200032257825182559160200191906001019062000305565b5b50905062000332919062000336565b5090565b6200035b91905b80821115620003575760008160009055506001016200033d565b5090565b90565b610a82806200036e6000396000f300606060405260043610610099576000357c0100000000000000000000000000000000000000000000000000000000900463ffffffff1680633ccfd60b1461009e57806345f0a44f146100b3578063853828b6146100ea5780638da5cb5b146100ff5780639d76ea5814610154578063a6f9dae1146101a9578063cdc18424146101e2578063f626f7c214610237578063fc0c546a1461026e575b600080fd5b34156100a957600080fd5b6100b16102c3565b005b34156100be57600080fd5b6100d46004808035906020019091905050610613565b6040518082815260200191505060405180910390f35b34156100f557600080fd5b6100fd610637565b005b341561010a57600080fd5b6101126108f9565b604051808273ffffffffffffffffffffffffffffffffffffffff1673ffffffffffffffffffffffffffffffffffffffff16815260200191505060405180910390f35b341561015f57600080fd5b61016761091f565b604051808273ffffffffffffffffffffffffffffffffffffffff1673ffffffffffffffffffffffffffffffffffffffff16815260200191505060405180910390f35b34156101b457600080fd5b6101e0600480803573ffffffffffffffffffffffffffffffffffffffff16906020019091905050610945565b005b34156101ed57600080fd5b6101f56109e7565b604051808273ffffffffffffffffffffffffffffffffffffffff1673ffffffffffffffffffffffffffffffffffffffff16815260200191505060405180910390f35b341561024257600080fd5b6102586004808035906020019091905050610a0c565b6040518082815260200191505060405180910390f35b341561027957600080fd5b610281610a30565b604051808273ffffffffffffffffffffffffffffffffffffffff1673ffffffffffffffffffffffffffffffffffffffff16815260200191505060405180910390f35b6000806000809054906101000a900473ffffffffffffffffffffffffffffffffffffffff168073ffffffffffffffffffffffffffffffffffffffff163373ffffffffffffffffffffffffffffffffffffffff1614151561032257600080fd5b600260009054906101000a900473ffffffffffffffffffffffffffffffffffffffff16600360006101000a81548173ffffffffffffffffffffffffffffffffffffffff021916908373ffffffffffffffffffffffffffffffffffffffff160217905550600360009054906101000a900473ffffffffffffffffffffffffffffffffffffffff1673ffffffffffffffffffffffffffffffffffffffff166370a08231306000604051602001526040518263ffffffff167c0100000000000000000000000000000000000000000000000000000000028152600401808273ffffffffffffffffffffffffffffffffffffffff1673ffffffffffffffffffffffffffffffffffffffff168152602001915050602060405180830381600087803b151561044a57600080fd5b6102c65a03f1151561045b57600080fd5b50505060405180519050925060008311151561047657600080fd5b600091505b6004805490508260ff16101561060e574260048360ff1681548110151561049e57fe5b9060005260206000209001541080156104d45750600060058360ff168154811015156104c657fe5b906000526020600020900154115b1561060157600360009054906101000a900473ffffffffffffffffffffffffffffffffffffffff1673ffffffffffffffffffffffffffffffffffffffff1663a9059cbb6000809054906101000a900473ffffffffffffffffffffffffffffffffffffffff1660058560ff1681548110151561054b57fe5b9060005260206000209001546000604051602001526040518363ffffffff167c0100000000000000000000000000000000000000000000000000000000028152600401808373ffffffffffffffffffffffffffffffffffffffff1673ffffffffffffffffffffffffffffffffffffffff16815260200182815260200192505050602060405180830381600087803b15156105e457600080fd5b6102c65a03f115156105f557600080fd5b50505060405180519050505b818060010192505061047b565b505050565b60058181548110151561062257fe5b90600052602060002090016000915090505481565b6000600160009054906101000a900473ffffffffffffffffffffffffffffffffffffffff168073ffffffffffffffffffffffffffffffffffffffff163373ffffffffffffffffffffffffffffffffffffffff1614151561069657600080fd5b600260009054906101000a900473ffffffffffffffffffffffffffffffffffffffff16600360006101000a81548173ffffffffffffffffffffffffffffffffffffffff021916908373ffffffffffffffffffffffffffffffffffffffff160217905550600360009054906101000a900473ffffffffffffffffffffffffffffffffffffffff1673ffffffffffffffffffffffffffffffffffffffff166370a08231306000604051602001526040518263ffffffff167c0100000000000000000000000000000000000000000000000000000000028152600401808273ffffffffffffffffffffffffffffffffffffffff1673ffffffffffffffffffffffffffffffffffffffff168152602001915050602060405180830381600087803b15156107be57600080fd5b6102c65a03f115156107cf57600080fd5b5050506040518051905091506000821115156107ea57600080fd5b600360009054906101000a900473ffffffffffffffffffffffffffffffffffffffff1673ffffffffffffffffffffffffffffffffffffffff1663a9059cbb600160009054906101000a900473ffffffffffffffffffffffffffffffffffffffff16846000604051602001526040518363ffffffff167c0100000000000000000000000000000000000000000000000000000000028152600401808373ffffffffffffffffffffffffffffffffffffffff1673ffffffffffffffffffffffffffffffffffffffff16815260200182815260200192505050602060405180830381600087803b15156108d957600080fd5b6102c65a03f115156108ea57600080fd5b50505060405180519050505050565b600160009054906101000a900473ffffffffffffffffffffffffffffffffffffffff1681565b600260009054906101000a900473ffffffffffffffffffffffffffffffffffffffff1681565b600160009054906101000a900473ffffffffffffffffffffffffffffffffffffffff168073ffffffffffffffffffffffffffffffffffffffff163373ffffffffffffffffffffffffffffffffffffffff161415156109a257600080fd5b81600160006101000a81548173ffffffffffffffffffffffffffffffffffffffff021916908373ffffffffffffffffffffffffffffffffffffffff1602179055505050565b6000809054906101000a900473ffffffffffffffffffffffffffffffffffffffff1681565b600481815481101515610a1b57fe5b90600052602060002090016000915090505481565b600360009054906101000a900473ffffffffffffffffffffffffffffffffffffffff16815600a165627a7a723058205b1d81ad73c9eaef424ba9d729d1bbb21e30d11a21ced4dcd353fad1c4e3c26d0029",
  "source": "pragma solidity ^0.4.18;\n\nimport \"../node_modules/zeppelin-solidity/contracts/token/ERC20/ERC20Basic.sol\";\n// import \"../node_modules/zeppelin-solidity/contracts/token/SafeERC20.sol\";\n\ncontract TimedChest {\n    // using SafeERC20 for ERC20Basic;\n\n    /** The address allowed to do withdraws */\n    address public withdrawer;\n\n    /** Owner / creator of the contract */\n    address public owner;\n\n    address public tokenAddress;\n\n    /** Address of the token we're time-locking */\n    ERC20Basic public token;\n\n    /** Times at which specific amount becomes available */\n    uint[] public releaseTimes;\n\n    /** List of amounts which can be withdrawn after a specific timestamp */\n    uint[] public amounts;\n    \n    modifier onlyAfter(uint _time) {\n        require(now >= _time);\n        _;\n    }\n\n    modifier onlyBy(address _account) {\n        require(msg.sender == _account);\n        _;\n    }\n\n    function changeOwner(address _newOwner) public onlyBy(owner) {\n        owner = _newOwner;\n    }\n\n    function TimedChest(uint[] _releaseDelays, uint[] _amounts, address _withdrawer, address _tokenAddress) public {\n        owner = msg.sender;\n\n        require (address(_tokenAddress) != 0x0);\n        require (address(_withdrawer) != 0x0);\n        require (_releaseDelays.length == _amounts.length && _releaseDelays.length > 0);\n\n        for (uint8 i = 0; i < _releaseDelays.length; i++) {\n            require(_releaseDelays[i] > now);\n            require(_amounts[i] > 0);\n            if (i == 0) {\n                releaseTimes[i] = now + _releaseDelays[i];\n            } else {\n                releaseTimes[i] = releaseTimes[i-1] + _releaseDelays[i];\n            }\n        }\n        \n        releaseTimes = _releaseDelays;\n        amounts = _amounts;\n        withdrawer = _withdrawer;\n        //token = ERC20Basic(_tokenAddress);\n        tokenAddress = _tokenAddress;\n    }\n\n    function withdraw() onlyBy(withdrawer) external {\n        token = ERC20Basic(tokenAddress);\n        uint256 amount = token.balanceOf(this);\n        require (amount > 0);\n        \n        for (uint8 i = 0; i < releaseTimes.length; i++) {\n            if (releaseTimes[i] < now && amounts[i] > 0) {\n                token.transfer(withdrawer, amounts[i]);\n            }\n        }\n    }\n\n    function withdrawAll() onlyBy(owner) external {\n        token = ERC20Basic(tokenAddress);\n        uint256 amount = token.balanceOf(this);\n        require (amount > 0);\n        \n        token.transfer(owner, amount);\n    }\n\n}",
  "sourcePath": "/Users/swader/Dropbox/bitfalls/cryptohunt/ico-contract/contracts/TimedChest.sol",
  "compiler": {
    "name": "solc",
    "version": "0.4.19+commit.c4cbbb05.Emscripten.clang"
  },
  "schemaVersion": "1.0.1",
  "updatedAt": "2018-02-05T12:48:43.953Z"
}